:1000000055C000006FC000006DC000006BC0000054
:1000100069C0000067C0000065C0000063C0000048
:1000200061C0000044C300005DC000005BC0000070
:1000300059C0000057C0000055C0000053C0000068
:1000400051C0000062C200004DC000004BC0000063
:1000500049C0000083C1000045C0000043C000004B
:1000600041C00000C1C200003DC000003BC0000014
:1000700039C0000037C0000035C0000033C00000A8
:1000800031C000002FC000002DC000002BC00000B8
:1000900029C0000027C0000025C0000023C00000C8
:1000A00021C000001FC000001DC0000011241FBEA1
:1000B000CFEFDAE0DEBFCDBF12E0A0E0B1E0E4E9CF
:1000C000FFE202C005900D92A838B107D9F713E0FE
:1000D000A8E8B2E001C01D92A132B107E1F762D3F6
:1000E0000C94C8178DCF089508950895A6E1B3E044
:1000F000E7E0F1E087E001900D928150E1F7AAEE90
:10010000B2E0E0E0F1E087E001900D928150E1F78C
:1001100083E790E09093200380931F0390931E0346
:1001200080931D039093FD028093FC029093D10273
:100130008093D0020895FC01A081B1814C9121E00F
:1001400030E0C901048002C0880F991F0A94E2F7C9
:10015000809584238C93A281B3818C91048002C00A
:10016000220F331F0A94E2F7822B8C938091680050
:100170008160809368008481833021F480916B00DA
:10018000886005C0882329F480916B00816080938A
:100190006B0083B189708093150380E090E008952F
:1001A000FC018481833061F4672B29F05093200394
:1001B00040931F03089550931E0340931D03089519
:1001C000882359F4672B29F05093FD024093FC02D9
:1001D00008955093D1024093D0020895ADE0B3E06A
:1001E000ECE1F1E087E001900D928150E1F73F9A58
:1001F000A6E0B3E0E5E1F1E087E001900D928150E7
:10020000E1F7559AA2EDB2E0EEE0F1E087E001906F
:100210000D928150E1F7209A0895DC011296ED913C
:10022000FC91139714963C911497672B59F42081F5
:1002300081E090E002C0880F991F3A95E2F7282BE1
:1002400020830BC0208181E090E002C0880F991FBD
:100250003A95E2F780958223808380ED97E020E94C
:1002600031E0F9013197F1F70197D9F71296ED9145
:10027000FC911397208181E090E014960C9002C0CD
:10028000880F991F0A94E2F72827208380ED97E0D2
:1002900020E931E0F9013197F1F70197D9F7089595
:1002A000CF92DF92EF92FF920F931F939DE0C92EA2
:1002B00093E0D92EC60160E070E0AFDF82EDE82E5A
:1002C00082E0F82EC70161E070E0A7DF06E013E0EE
:1002D000C80161E070E0A1DFC60160E070E09DDF71
:1002E000C70161E070E099DFC80161E070E095DF6F
:1002F0001F910F91FF90EF90DF90CF9008952D9A6E
:1003000080E197E220E931E0F9013197F1F70197B7
:10031000D9F785B18F6D85B92E9A80E197E220E9F2
:1003200031E0F9013197F1F70197D9F72E98469A04
:1003300080E197E220E931E0F9013197F1F7019787
:10034000D9F746985E9A80E197E220E931E0F90119
:100350003197F1F70197D9F75E9808951F920F92A0
:100360000FB60F921124AF92BF92CF92DF92EF920D
:10037000FF920F931F932F933F934F935F936F932E
:100380007F938F939F93AF93BF93EF93FF9380914E
:10039000F4029091F5026091F6027091F702E091FB
:1003A000F802F091F902A091FA02B091FB02282F15
:1003B0002F5F31E0281708F030E0390F41E039179E
:1003C00008F040E0460F51E0461708F050E0570FA4
:1003D00061E0571708F060E06E0F71E06E1708F0EB
:1003E00070E07F0F81E07F1708F080E08A0F91E0D6
:1003F0008A1708F090E09B0F2093F4023093F502E7
:100400004093F6025093F7026093F8027093F9025A
:100410008093FA029093FB02F8EEAF2EE3E0BE2E3B
:10042000CC24DD24EE24FF2400E010E00E94F00E36
:10043000232B242B252B262B272B282B292B09F08C
:100440004BC08091FE022091FF0230910003409149
:10045000010360910203E0910303A0910403109152
:100460000503B82FBF5F91E0B81708F090E0F92FAF
:10047000F20F81E0F21708F080E0782F730F81E02F
:10048000731708F080E0582F540F81E0541708F0DC
:1004900080E0382F360F81E0361708F080E0282FF3
:1004A0002E0F81E02E1708F080E0982F9A0F81E040
:1004B0009A1708F080E0810FB093FE02F093FF02DC
:1004C00070930003509301033093020320930303BE
:1004D0009093040380930503FF91EF91BF91AF9137
:1004E0009F918F917F916F915F914F913F912F914C
:1004F0001F910F91FF90EF90DF90CF90BF90AF9042
:100500000F900FBE0F901F9018951F920F920FB66D
:100510000F9211241F932F933F934F935F936F93E9
:100520007F938F939F93AF93BF93EF93FF938091AC
:10053000C8022091C9023091CA024091CB02609159
:10054000CC02E091CD02A091CE021091CF02B82F43
:10055000BF5F91E0B81708F090E0F92FF20F81E04B
:10056000F21708F080E0782F730F81E0731708F01E
:1005700080E0582F540F81E0541708F080E0382FA6
:10058000360F81E0361708F080E0282F2E0F81E02B
:100590002E1708F080E0982F9A0F81E09A1708F044
:1005A00080E0810FB093C802F093C9027093CA0231
:1005B0005093CB023093CC022093CD029093CE0285
:1005C0008093CF02FF91EF91BF91AF919F918F9157
:1005D0007F916F915F914F913F912F911F910F905C
:1005E0000FBE0F901F9018951F920F920FB60F928B
:1005F00011242F933F934F935F936F937F938F9328
:100600009F93AF93BF93EF93FF939091CE009D3054
:1006100021F08091F302823320F081E08093F20296
:100620002FC0983081F48091F302882329F08091C3
:10063000F30281508093F302E091F302F0E0E85777
:10064000FD4F10821DC0903281F09E3271F09B32BE
:1006500061F09D3251F0892F80538A3030F0815102
:100660008A3118F080528A3158F4E091F302F0E0B8
:10067000E857FD4F90838091F3028F5F8093F302E0
:1006800088E892E008D583E291E005D5FF91EF91EB
:10069000BF91AF919F918F917F916F915F914F919A
:1006A0003F912F910F900FBE0F901F9018951F92A2
:1006B0000F920FB60F921124AF92BF92CF92DF929A
:1006C000EF92FF920F931F932F933F934F935F935C
:1006D0006F937F938F939F93AF93BF93EF93FF930A
:1006E000ACD459016A017B018C0183B19501A6014B
:1006F000B701C8010E944E162DEC3CEC48E652E4CE
:100700000E9443150E94B0152093BB023093BC0297
:100710004093BD025093BE026093BF027093C0022B
:100720008093C1029093C2021092E1022D98FF9132
:10073000EF91BF91AF919F918F917F916F915F9159
:100740004F913F912F911F910F91FF90EF90DF906C
:10075000CF90BF90AF900F900FBE0F901F90189545
:10076000C5DC3CDD80E090E060E470E041E050E01A
:1007700099D360E070E080E090E0F5D31092BB0286
:100780001092BC021092BD021092BE021092BF02E3
:100790001092C0021092C1021092C202569A109298
:1007A000E1020895A1E4B0E0E8EDF3E00C94501705
:1007B0001092D800D5DF1092C3021092BA021092A4
:1007C000F10215B884B1806C84B986E291E063D4FB
:1007D00078949E01275D3F4F22963FAF2EAF229720
:1007E0008091C302882349F08091F102882329F483
:1007F00031E03093F1021092C3028091BA02882353
:1008000041F08091F102882321F01092F1021092C0
:10081000BA02CE0101969AA789A7E9D32AAB3BABCE
:100820004CAB5DAB6EAB7FAB88AF99AF2F5F2AAFA0
:1008300081E09AA9291708F080E0ABA9A80FABA71F
:1008400081E0BBA9AB1708F080E0ECA9E80FECA7AA
:1008500081E0FCA9EF1708F080E0ADA8A80EADA6D6
:1008600081E0BDA8AB1408F080E02EA9280F2EA7C8
:1008700081E03EA9231708F080E09FA9980F9FA769
:1008800081E0AFA99A1708F080E0B8ADB80FB8AB17
:1008900081E0E8ADBE1708F080E0F9ADF80FF9ABE4
:1008A0002AA93BA94CA95DA96EA97FA988AD99ADDC
:1008B000EAE0AE2EBB24CC24DD24EE24FF2400E0AD
:1008C00010E00E94F00E232B242B252B262B272B08
:1008D000282B292B09F049C0AAA892E0B92EAB0C0D
:1008E00081E02AA9A21608F080E0BBA8B80E81E03A
:1008F0003BA9B31608F080E0CCA8C80E81E09CA903
:10090000C91608F080E0DDA8D80E81E0ADA9DA169E
:1009100008F080E0EEA8E80E81E0BEA9EB1608F032
:1009200080E00FA9080F81E0EFA90E1708F080E022
:1009300018AD180F91E0F8AD1F1708F090E0F9AC72
:10094000F90E11C054D32A1571F43B1561F44C15FE
:1009500051F45D1541F46E1531F4701721F48117CF
:1009600011F49F1511F02D9BEDCF80916F008260E7
:1009700080936F004FD335C02D9B09C05ED3190102
:100980002A013B014C018EE291E085D349C0809160
:100990006F008D7F80936F009101A201B301C401AC
:1009A0000E944E162DEC3CEC48E652E40E944315A2
:1009B0000E94B015A9A5BAA52C9311963C93119746
:1009C00012964C93129713965C93139714966C930C
:1009D000149715967C93159716968C9316971796E1
:1009E0009C9305D3BAAD2B1739F6EBA53E1721F62C
:1009F000FCA54F1709F0C0CFADA45A1509F0BCCF24
:100A0000BEA46B1509F0B8CF2FA5721709F0B4CFAB
:100A100038A9831709F0B0CF89A9981709F0ACCF8E
:100A2000DE011996DD2400E071E0FC9011961C9126
:100A3000119712966C91129713965C9113971496D6
:100A40004C91149715963C91159716962C911697E4
:100A500017969C911797ED2DF0E083E0EE0FFF1FA6
:100A60008A95E1F781E0A82EB12CAC0EBD1EEA0DEF
:100A7000FB1D8781891718F1891711F58681821767
:100A8000F0F08217E9F485818317C8F08317C1F469
:100A900084818417A0F0841799F48381851778F0F6
:100AA000851771F48281861750F0861749F4818189
:100AB000811728F0811721F480818F1508F4D72E33
:100AC000E02FF0E083E0EE0FFF1F8A95E1F781E071
:100AD000A82EB12CAC0EBD1EEA0DFB1D8781981708
:100AE00018F1891711F586812817F0F08217E9F4BB
:100AF00085813817C8F08317C1F484814817A0F0A6
:100B0000841799F48381581778F0851771F48281DE
:100B1000681750F0861749F48181181728F081175B
:100B200021F48081F81608F4072F18967F5F75303E
:100B300009F07BCFFE01319680E090E020E030E0CC
:100B400040E050E060E070E0EE24FF24A02FB0E031
:100B5000BFAFAEAFAD2CBB24AEADBFAD8A179B0708
:100B600009F466C08A159B0509F462C00081B18151
:100B70001281D380C480A581ABAFA681ACAFA78121
:100B8000ADAF020FA1E0021708F0A0E0232F2B0F5A
:100B9000B1E0231708F0B0E03A2F320FA1E032178E
:100BA00008F0A0E0BA2B242F210F11E0241708F041
:100BB00010E04B2F420FA1E0421708F0A0E01A2BE3
:100BC000252F2D0DB1E0251708F0B0E0512F520F61
:100BD000A1E0521708F0A0E0BA2B262F2C0D11E04F
:100BE000261708F010E06B2F620FA1E0621708F0E3
:100BF000A0E01A2B2BAD270FB1E0271708F0B0E0CB
:100C0000712F720FA1E0721708F0A0E0BA2B2CAD83
:100C10002E0D11E02E1508F010E0B20FA1E0B21772
:100C200008F0A0E01A2B2DADF20E202FEB2EF10EC6
:100C3000019638968530910509F08ECFC701A3E063
:100C4000AA2EBB24CC24DD24EE24FF2400E010E0F7
:100C500052D22093BB023093BC024093BD0250930A
:100C6000BE026093BF027093C0028093C102909352
:100C7000C20289A59AA508969AA789A72296AEAD21
:100C8000BFAD22978A179B0709F0C7CD8091F1026B
:100C9000882309F03FC0B1E0B093C302E1D1B22F85
:100CA000BE5FE1E0B21708F0E0E0AE2FA30F21E055
:100CB000A31708F020E0F22FF40F21E0F41708F05A
:100CC00020E0E22FE50F21E0E51708F020E0522FA9
:100CD000560F21E0561708F020E0422F470F21E081
:100CE000471708F020E0322F380F21E0381708F0BE
:100CF00020E0290FB093E202A093E302F093E40214
:100D0000E093E5025093E6024093E7023093E80255
:100D10002093E9028091F102882309F461CD80914A
:100D2000E2029091E302892B9091E402892B909149
:100D3000E502892B9091E602892B9091E702892B9D
:100D40009091E802892B9091E902892B09F448CD12
:100D50004ED1E091E9029E1708F442CDE91779F5EA
:100D60009091E802891708F43BCD981741F58091DE
:100D7000E702781708F434CD871709F58091E60269
:100D8000681708F42DCD8617D1F48091E502581725
:100D900008F426CD851799F48091E402481708F4E9
:100DA0001FCD841761F48091E302381708F418CD41
:100DB000831729F48091E202281708F411CDE1E0AD
:100DC000E093BA021092E2021092E3021092E4025F
:100DD0001092E5021092E6021092E7021092E802E9
:100DE0001092E902FDCC14BC15BC94B5926094BD80
:100DF00095B5982B95BD67BDEEE6F0E080818260E9
:100E0000808381E090E0089510928000E1E8F0E0B6
:100E100010829081986090839081982B908370933A
:100E2000890060938800EFE6F0E080818260808333
:100E300081E090E0089510929000E1E9F0E01082E6
:100E40009081986090839081982B90837093990003
:100E500060939800E1E7F0E080818260808381E028
:100E600090E0089580349105A9F08134910534F41F
:100E70008130910569F0089799F408C021E080302D
:100E8000920751F08050944059F408C082E00895D0
:100E900081E0089583E0089584E0089585E0089551
:100EA00080E00895A0E0B0E0E8E5F7E00C945A1780
:100EB000EC016B01009739F08130910521F083300E
:100EC000910509F048C0D7FC46C0BA01882777FDD4
:100ED0008095982F0E94131620E030E04AE756E4F0
:100EE0000E94ED167B018C01B601882777FD809565
:100EF000982F0E9413169B01AC01C801B7010E94F4
:100F000043150E94E5157B018C018FEFE8168FEFEA
:100F1000F80680E0080780E01807E8F4209739F425
:100F20008FEFE816F1040105110509F0A0F4C601E0
:100F300099DFC130D10541F0C330D10541F0CD2B4F
:100F400051F46E2D50DF05C0B7015EDF02C0B7015E
:100F500072DF9C0102C02FEF3FEFC901CDB7DEB7B2
:100F6000E8E00C947617A0E8B0E01C9221E830E0AD
:100F7000F9011082EFE6F0E0808182708083269A8A
:100F80008C9183608C938C9180688C93F901808123
:100F90008160808380818861808380E190E090938C
:100FA00089008093880080E290E09093870080938E
:100FB000860081E090E00895E0E9F0E01082A1E988
:100FC000B0E01C9220812160208320812068208352
:100FD0002C9124602C932C9128602C939093990051
:100FE0008093980081E090E0089580E00895F8945F
:100FF00078942091F4023091F5024091F6025091DC
:10100000F7026091F8027091F9028091FA029091D2
:10101000FB020895F8941092C8021092C90210922F
:10102000CA021092CB021092CC021092CD02109202
:10103000CE021092CF0278940895F894789420917B
:10104000C8023091C9024091CA025091CB0260910E
:10105000CC027091CD028091CE029091CF02089582
:10106000F89478942091FE023091FF0240910003A1
:101070005091010360910203709103038091040376
:10108000909105030895982F8091C80085FFFCCFAB
:101090009093CE000895FC0107C08091C80085FFA1
:1010A000FCCF9093CE00319690819923B1F7809137
:1010B000C80085FFFCCF8DE08093CE00089589E1C4
:1010C00090E09093CD008093CC00EAECF0E080813A
:1010D00086608083E9ECF0E0808188608083808195
:1010E000806180838081806880830895089587E38C
:1010F00091E0D1CF0895AEE5B0E0E1E8F8E00C94DE
:101100005017A8E04E010894811C911CF4016A2E2E
:1011100011926A94E9F729833A834B835C836D8348
:101120007E838F839887CE010996FC011192AA9540
:10113000E9F7A986BA86CB86DC86ED86FE860F8720
:10114000188B29843A844B845C84ED84FE840F855B
:10115000188969807A808B809C806DA67EA68FA678
:1011600098AA6D807E808F809884E114F104010537
:10117000110509F0B3C3621473048404950408F0E4
:101180003DC100E0201600E0300601E0400600E02E
:10119000500688F41FEF211631044104510439F040
:1011A00030F048E0E42EF12C012D112D18C0EE2472
:1011B000FF24870114C020E0221620E0320620E040
:1011C000420621E0520630F038E1E32EF12C012DE9
:1011D000112D05C020E1E22EF12C012D112DD2019F
:1011E000C1010E2C04C0B695A795979587950A94D2
:1011F000D2F788579E4FDC012C9180E290E0A0E06E
:10120000B0E08E199F09A00BB10B7C018D01E21A91
:10121000F10801091109E114F10401051105A1F119
:101220000E2C04C0220C331C441C551C0A94D2F70B
:10123000A40193010E2C04C0220F331F441F551F1D
:101240000A94D2F780E290E08E199F096DA47EA4E3
:101250008FA498A804C096948794779467948A95ED
:10126000D2F7622A732A842A952AADA4BEA4CFA4F9
:10127000D8A804C0AA0CBB1CCC1CDD1CEA94D2F775
:10128000ADA6BEA6CFA6D8AA6201EE24FF24CDAAA1
:10129000DEAAEFAAF8AE920181012070307009AF8A
:1012A0001AAF2BAF3CAFC401B301A70196010E9456
:1012B000A6177B018C01C401B3012DA93EA94FA93A
:1012C00058AD0E94A617C901DA013C014D01C401C5
:1012D000B30129AD3AAD4BAD5CAD0E9487179B01C0
:1012E000AC018701FF24EE24ADA4BEA4CFA4D8A8EE
:1012F000C601AA27BB2757016801A82AB92ACA2A0A
:10130000DB2AA216B306C406D506E0F408946108E9
:10131000710881089108A20CB31CC41CD51CA2142E
:10132000B304C404D50470F0A216B306C406D506EF
:1013300048F408946108710881089108A20CB31C54
:10134000C41CD51CA21AB30AC40AD50AC601B50129
:101350002DA93EA94FA958AD0E94A6177B018C016B
:10136000C601B5012DA93EA94FA958AD0E94A617E7
:10137000C901DA015C016D01C601B50129AD3AADC3
:101380004BAD5CAD0E9487179B01AC018701FF2428
:10139000EE248DA59EA5AFA5B8A9A070B070E82ACF
:1013A000F92A0A2B1B2BE216F30604071507C0F4D3
:1013B0000894A108B108C108D108E20CF31C041D6F
:1013C000151DE214F3040405150550F0E216F306AA
:1013D0000407150728F40894A108B108C108D1082A
:1013E000D3019927882786017501E82AF92A0A2B53
:1013F0001B2BE9AAFAAA0BAB1CABCFC421143104F6
:101400004104510471F461E070E080E090E020E07C
:1014100030E040E050E00E94A617C901DA011C014B
:101420002D0100E0201600E0300601E0400600E05B
:10143000500688F41FEF211631044104510431F0A5
:1014400028F048E050E060E070E017C040E050E075
:1014500060E070E012C020E0221620E0320620E0BA
:10146000420621E0520628F048E150E060E070E0DA
:1014700004C040E150E060E070E0D201C101042E00
:1014800004C0B695A795979587950A94D2F7885783
:101490009E4FDC012C91E0E2EE2EF12C012D112D5E
:1014A000D801C701841B950BA60BB70B821B9109B2
:1014B000A109B1090097A105B10561F464015301C7
:1014C000A218B308C408D50831E0632E712C812C12
:1014D000912C1EC16F968FAF6F97082E04C0220CFF
:1014E000331C441C551C0A94D2F7EE2DE81B6401F2
:1014F00053010E2E04C0D694C794B794A7940A94AF
:10150000D2F7A40193016F960FAC6F9704C0220F1E
:10151000331F441F551F0A94D2F76DA47EA48FA4D5
:1015200098A80E2E04C096948794779467940A9492
:10153000D2F784017301E22AF32A042B152BE9A6C2
:10154000FAA60BA71CA732018824992492018101D5
:101550002070307021960CAF1DAF2EAF3FAF21979A
:10156000C601B501A40193010E94A6177B018C015D
:10157000C601B501A40193010E94A617C901DA01B1
:1015800025968CAF9DAFAEAFBFAF2597BC01CD0107
:1015900021962CAD3DAD4EAD5FAD21970E948717D2
:1015A0009B01AC018701FF24EE24A9A4BAA4CBA41B
:1015B000DCA4C601AA27BB275C016D01AE28BF28A9
:1015C000C02AD12AA216B306C406D50660F5259610
:1015D0006CAD7DAD8EAD9FAD259761507040804064
:1015E000904025966CAF7DAF8EAF9FAF2597A20C34
:1015F000B31CC41CD51CA214B304C404D50498F0B5
:10160000A216B306C406D50670F46150704080403F
:10161000904025966CAF7DAF8EAF9FAF2597A20C03
:10162000B31CC41CD51CA21AB30AC40AD50AC6012D
:10163000B501A40193010E94A6177B018C01C6018C
:10164000B501A40193010E94A617C901DA013C016A
:101650004D01C401B30121962CAD3DAD4EAD5FAD42
:1016600021970E9487179B01AC018701FF24EE247C
:1016700089A59AA5ABA5BCA5A070B070570168015B
:10168000A82AB92ACA2ADB2AA216B306C406D50696
:10169000E0F408946108710881089108A20CB31C59
:1016A000C41CD51CA214B304C404D50470F0A21643
:1016B000B306C406D50648F4089461087108810889
:1016C0009108A20CB31CC41CD51C8DA59EA5AFA56A
:1016D000B8A96F960FAC6F9704C0880F991FAA1F07
:1016E000BB1F0A94D2F78DA79EA7AFA7B8ABA21ACB
:1016F000B30AC40AD50A2596ECACFDAC0EAD1FADFD
:101700002597D70199278827682A792A8A2A9B2A28
:1017100082012227332729960CAF1DAF2EAF3FAF92
:101720002997A2019101407050702D962CAF3DAFCA
:101730004EAF5FAF2D97C601B50129962CAD3DADDB
:101740004EAD5FAD29970E94A6177B018C01C601A3
:10175000B50129962CAD3DAD4EAD5FAD29970E94E8
:10176000A617C901DA0161968CAF9DAFAEAFBFAFCE
:101770006197BC01CD012D962CAD3DAD4EAD5FAD59
:101780002D970E9487179B01AC018701FF24EE244F
:10179000ADA4BEA4CFA4D8A8C601AA27BB275701D1
:1017A0006801A82AB92ACA2ADB2AA216B306C406E7
:1017B000D50660F561966CAD7DAD8EAD9FAD619740
:1017C000615070408040904061966CAF7DAF8EAFAD
:1017D0009FAF6197A20CB31CC41CD51CA214B30408
:1017E000C404D50498F0A216B306C406D50670F456
:1017F000615070408040904061966CAF7DAF8EAF7D
:101800009FAF6197A20CB31CC41CD51CA21AB30ACB
:10181000C40AD50AC601B50129962CAD3DAD4EAD21
:101820005FAD29970E94A6177B018C01C601B50107
:1018300029962CAD3DAD4EAD5FAD29970E94A61700
:10184000C901DA015C016D01C601B5012D962CAD0F
:101850003DAD4EAD5FAD2D970E9487179B01AC014A
:101860008701FF24EE248DA59EA5AFA5B8A9A07081
:10187000B070E82AF92A0A2B1B2BE216F30604079C
:101880001507C0F40894A108B108C108D108E20CFA
:10189000F31C041D151DE214F3040405150550F096
:1018A000E216F3060407150728F40894A108B10806
:1018B000C108D1086196ECACFDAC0EAD1FAD6197CF
:1018C000D7019927882796018501082B192B2A2BE8
:1018D0003B2B09AB1AAB2BAB3CAB62C26E147F0443
:1018E0008006910608F451C220E0E21620E0F206DC
:1018F00021E0020720E0120788F43FEFE316F1042D
:101900000105110531F028F048E050E060E070E09A
:1019100017C040E050E060E070E012C040E0E41624
:1019200040E0F40640E0040741E0140728F048E1F5
:1019300050E060E070E004C040E150E060E070E042
:10194000D801C701042E04C0B695A7959795879531
:101950000A94D2F788579E4FDC012C9130E2A32ED7
:10196000B12CC12CD12CD601C501841B950BA60B23
:10197000B70B821B9109A109B1090097A105B10517
:1019800089F4E614F7040805190508F4F2C16DA4FA
:101990007EA48FA498A8621473048404950408F0AC
:1019A000E8C1F3C16E968FAF6E97082E04C0EE0C9F
:1019B000FF1C001F111F0A94D2F76A2D681BD20169
:1019C000C101062E04C0B695A795979587950A94F0
:1019D000D2F75C016D01AE28BF28C02AD12AADA282
:1019E000BEA2CFA2D8A6720161016E960FAC6E970F
:1019F00004C0CC0CDD1CEE1CFF1C0A94D2F7C9A25B
:101A0000DAA2EBA2FCA264015301062E04C0D69414
:101A1000C794B794A7940A94D2F7D401C3016E96E1
:101A20000FAC6E9704C0880F991FAA1FBB1F0A94A2
:101A3000D2F7EDA4FEA40FA518A904C0169507952A
:101A4000F794E7946A95D2F737014801682A792A12
:101A50008A2A9B2A6D8E7E8E8F8E98A2EDA0FEA084
:101A60000FA118A5380188249924980187012070B6
:101A7000307065960CAF1DAF2EAF3FAF6597C601B6
:101A8000B501A40193010E94A6177B018C01C60138
:101A9000B501A40193010E94A617C901DA011C0136
:101AA0002D01C201B10165962CAD3DAD4EAD5FADCE
:101AB00065970E9487179B01AC018701FF24EE24E4
:101AC000AD8CBE8CCF8CD8A0C601AA27BB275701EE
:101AD0006801A82AB92ACA2ADB2AA216B306C406B4
:101AE000D50600F508942108310841085108EDA0F9
:101AF000FEA00FA118A5AE0CBF1CC01ED11EAE14B7
:101B0000BF04C006D10670F0A216B306C406D506FF
:101B100048F408942108310841085108AE0CBF1C54
:101B2000C01ED11EA21AB30AC40AD50AC601B50145
:101B3000A40193010E94A6177B018C01C601B50187
:101B4000A40193010E94A617C901DA013C014D01CD
:101B5000C401B30165962CAD3DAD4EAD5FAD65974B
:101B60000E9487179B01AC018701FF24EE248D8D15
:101B70009E8DAF8DB8A1A070B07057016801A82AE2
:101B8000B92ACA2ADB2AA216B306C406D50600F56E
:101B9000089461087108810891086DA17EA18FA148
:101BA00098A5A60EB71EC81ED91EA616B706C8064B
:101BB000D90670F0A216B306C406D50648F40894F8
:101BC0006108710881089108A60EB71EC81ED91EAB
:101BD000D601C501821B930BA40BB50B898F9A8F7D
:101BE000AB8FBC8FD1019927882764015301A82AA4
:101BF000B92ACA2ADB2AA9AABAAACBAADCAA8601D0
:101C000075012FEF3FEF40E050E0E222F322042382
:101C10001523A601662777276D964CAF5DAF6EAF93
:101C20007FAF6D97A9A0BAA0CBA0DCA06FEF7FEF2C
:101C300080E090E0A622B722C822D92289A19AA1E9
:101C4000ABA1BCA11D0144245524C801B701A601C4
:101C500095010E94871769966CAF7DAF8EAF9FAFDD
:101C60006997C801B701A20191010E9487173B0142
:101C70004C016D966CAD7DAD8EAD9FAD6D97A6019F
:101C800095010E9487177B018C016D966CAD7DAD2F
:101C90008EAD9FAD6D97A20191010E9487175B01E8
:101CA0006C01A8019701260D371D481D591D699625
:101CB0006CAC7DAC8EAC9FAC6997C401AA27BB27E6
:101CC000280F391F4A1F5B1F2E153F05400751077C
:101CD00048F4E12CF12C61E0062F112DAE0CBF1C55
:101CE000C01ED11ECA01AA27BB27BC01CD016A0DA7
:101CF0007B1D8C1D9D1D698C7A8C8B8C9C8C661633
:101D000077068806990640F16615770588059905D6
:101D100009F043C0D9019927882769962CAD3DADBC
:101D20004EAD5FAD699740705070820F931FA41F36
:101D3000B51F2DA53EA54FA558A96E960FAC6E9761
:101D400004C0220F331F441F551F0A94D2F72817CF
:101D500039074A075B0708F509A91AA92BA93CA965
:101D6000015010402040304009AB1AAB2BAB3CABCC
:101D700014C066247724430121E030E040E050E0C5
:101D800029AB3AAB4BAB5CAB0BC066247724430169
:101D900019AA1AAA1BAA1CAA03C066247724430105
:101DA000FE01719688E0DF011D928A95E9F7A9A8E6
:101DB000BAA8CBA8DCA8A98ABA8ACB8ADC8A6D8AA1
:101DC0007E8A8F8A988E29A93A894B895C89662DEB
:101DD0007E898F89988DC25ADF4FE2E10C946C178F
:101DE000ABE5B0E0E6EFFEE00C945017A8E04E0142
:101DF0000894811C911CF4016A2E11926A94E9F7EF
:101E000029833A834B835C836D837E838F8398879A
:101E1000CE010996FC011192AA95E9F7A986BA8626
:101E2000CB86DC86ED86FE860F87188B29843A8464
:101E30004B845C84AD84BE84CF84D88829813A8168
:101E40004B815C8169962FAF69976A963FAF6A971D
:101E50006B964FAF6B976C965FAF6C976C966CAC54
:101E60007DAC8EAC9FAC6C9769AA7AAA8BAA9CAA0F
:101E70006D817E818F8198853B014C016DAA7EAA80
:101E80008FAA98AEA114B104C104D10409F0F2C222
:101E9000621473048404950408F0FBC000E020166B
:101EA00000E0300601E0400600E0500688F41FEF35
:101EB000211631044104510439F030F088E0E82E55
:101EC000F12C012D112D18C0EE24FF24870114C020
:101ED00040E0241640E0340640E0440641E0540669
:101EE00030F0B8E1EB2EF12C012D112D05C0A0E151
:101EF000EA2EF12C012D112DD201C1010E2C04C0AE
:101F0000B695A795979587950A94D2F788579E4FCF
:101F1000DC012C9180E290E0A0E0B0E08E199F09F6
:101F2000A00BB10B5C016D01A21AB108C108D10868
:101F3000A9AEBAAECBAEDCAEA114B104C104D104DB
:101F400009F43FC069AD062E04C0220C331C441CAA
:101F5000551C0A94D2F7A4019301062E04C0220F47
:101F6000331F441F551F0A94D2F780E290E08A196C
:101F70009B096C96CCACDDACEEACFFAC6C9704C0AE
:101F8000F694E794D794C7948A95D2F7870176019F
:101F9000E22AF32A042B152BEDAAFEAA0FAB18AFE9
:101FA0006C968CAD9DADAEADBFAD6C9704C0880F87
:101FB000991FAA1FBB1F6A95D2F789AB9AABABAB2F
:101FC000BCAB320188249924B201A1016070707009
:101FD00021964CAF5DAF6EAF7FAF21976DA97EA903
:101FE0008FA998ADA4019301B1D77B018C016DA994
:101FF0007EA98FA998ADA4019301A8D7CA01B90100
:1020000021962CAD3DAD4EAD5FAD219780D79B01A4
:10201000AC018701FF24EE24A9A8BAA8CBA8DCA8AC
:10202000C601AA27BB2757016801A82AB92ACA2ACC
:10203000DB2AA216B306C406D50690F4A20CB31C84
:10204000C41CD51CA214B304C404D50448F0A216C1
:10205000B306C406D50620F4A20CB31CC41CD51CC0
:10206000A21AB30AC40AD50AC601B501A401930194
:102070006DD77B018C01C601B501A401930166D720
:10208000CA01B90121962CAD3DAD4EAD5FAD219792
:10209000AEC1211431044104510469F461E070E0DF
:1020A00080E090E020E030E040E050E04FD7C90110
:1020B000DA011C012D0100E0201600E0300601E0ED
:1020C000400600E0500688F41FEF21163104410459
:1020D000510439F030F068E0E62EF12C012D112D7D
:1020E00018C0EE24FF24870114C040E0241640E00D
:1020F000340640E0440641E0540630F058E1E52E55
:10210000F12C012D112D05C040E1E42EF12C012D03
:10211000112DD201C1010E2C04C0B695A79597953B
:1021200087950A94D2F788579E4FDC012C9130E2B4
:10213000A32EB12CC12CD12CD601C5018E199F091B
:10214000A00BB10B7C018D01E21AF1080109110904
:10215000E9AEFAAE0BAF1CAFE114F10401051105B5
:1021600039F464015301A218B308C408D508DCC0CF
:10217000F9AC6896FFAE68970F2C04C0220C331C94
:10218000441C551C0A94D2F78A2D8F1964015301FF
:10219000082E04C0D694C794B794A7940A94D2F793
:1021A000A401930104C0220F331F441F551FFA944A
:1021B000D2F76C966CAC7DAC8EAC9FAC6C9704C0C7
:1021C00096948794779467948A95D2F784017301E3
:1021D000E22AF32A042B152BEDA6FEA60FA718ABB7
:1021E000320188249924B201A10160707070259693
:1021F0004CAF5DAF6EAF7FAF2597C601B501A401AF
:102200009301A4D67B018C01C601B501A401930101
:102210009DD6CA01B90125962CAD3DAD4EAD5FAD41
:10222000259775D69B01AC018701FF24EE24ADA450
:10223000BEA4CFA4D8A8C601AA27BB275C016D0104
:10224000AE28BF28C02AD12AA216B306C406D506D6
:1022500090F4A20CB31CC41CD51CA214B304C40477
:10226000D50448F0A216B306C406D50620F4A20C85
:10227000B31CC41CD51CA21AB30AC40AD50AC601D1
:10228000B501A401930162D67B018C01C601B501A1
:10229000A40193015BD6CA01B90125962CAD3DADD1
:1022A0004EAD5FAD259733D69B01AC018701FF246E
:1022B000EE248DA59EA5AFA5B8A9A070B07057015A
:1022C0006801A82AB92ACA2ADB2AA216B306C406BC
:1022D000D50690F4A20CB31CC41CD51CA214B304E4
:1022E000C404D50448F0A216B306C406D50620F4EB
:1022F000A20CB31CC41CD51C6C96ECACFDAC0EAD92
:102300001FAD6C9768960FAC689704C0EE0CFF1C6D
:10231000001F111F0A94D2F7E9AAFAAA0BAB1CAB53
:10232000A21AB30AC40AD50A320188249924B20138
:10233000A1016070707029964CAF5DAF6EAF7FAF3A
:102340002997C601B501A401930100D67B018C0138
:10235000C601B501A4019301F9D5CA01B9012996B5
:102360002CAD3DAD4EAD5FAD2997D1D59B01AC01F4
:102370008701FF24EE24A9A8BAA8CBA8DCA8C6012F
:10238000AA27BB2757016801A82AB92ACA2ADB2A2B
:10239000A216B306C406D50690F4A20CB31CC41C46
:1023A000D51CA214B304C404D50448F0A216B30685
:1023B000C406D50620F4A20CB31CC41CD51CA21A5A
:1023C000B30AC40AD50AC601B501A4019301BED55A
:1023D0007B018C01C601B501A4019301B7D5CA01E7
:1023E000B90129962CAD3DAD4EAD5FAD29978FD586
:1023F0009B01AC018701FF24EE2489A99AA9ABA90E
:10240000BCA9A070B070E82AF92A0A2B1B2BE2168F
:10241000F3060407150790F4E20CF31C041D151DC8
:10242000E214F3040405150548F0E216F306040768
:10243000150720F4E20CF31C041D151DE21AF30A23
:10244000040B150BD801C70109AC04C0B695A795BC
:10245000979587950A94D2F7898B9A8BAB8BBC8B17
:102460001D8A1E8A1F8A188E282F3A894B895C89FB
:102470006D8902C36A147B048C049D0408F4FFC2B6
:1024800000E0A01600E0B00601E0C00600E0D006C3
:1024900088F41FEFA116B104C104D10439F030F063
:1024A00028E0E22EF12C012D112D18C0EE24FF247E
:1024B000870114C040E0A41640E0B40640E0C40622
:1024C00041E0D40630F098E1E92EF12C012D112DD8
:1024D00005C080E1E82EF12C012D112DD601C5019A
:1024E0000E2C04C0B695A795979587950A94D2F7B8
:1024F00088579E4FDC012C9180E290E0A0E0B0E094
:102500008E199F09A00BB10B821B9109A109B1097A
:102510000097A105B10509F04FC0A614B704C8047F
:10252000D90458F06C96ECACFDAC0EAD1FAD6C97B9
:10253000E214F3040405150568F16C96ECACFDACEF
:102540000EAD1FAD6C97E218F30804091509A4013C
:1025500093012A193B094C095D09AA24BB24650192
:102560006C966CAD7DAD8EAD9FAD6C976E157F0595
:102570008007910728F4B1E0AB2EB12CC12CD12CEF
:10258000DA01C9018A199B09AC09BD098DAB9EAB63
:10259000AFABB8AFE98AFA8A0B8B1C8B6DA87EA80B
:1025A0008FA898AC6D8A7E8A8F8A988E2E2D3A8954
:1025B0004B895C896DA960C267968FAF6797A6014A
:1025C0009501082E04C0220F331F441F551F0A9483
:1025D000D2F7A0E2AA2EA81A6696AFAE6697D201ED
:1025E000C10104C0B695A79597958795AA94D2F78F
:1025F0006C017D01C22AD32AE42AF52AC9A6DAA6EB
:10260000EBA6FCA68201710167960FAC679704C028
:10261000EE0CFF1C001F111F0A94D2F7EDA2FEA2C0
:102620000FA318A76401530166960FAC669704C008
:10263000D694C794B794A7940A94D2F7A4019301AF
:1026400067960FAC679704C0220F331F441F551FB6
:102650000A94D2F76C968CAD9DADAEADBFAD6C97C4
:1026600066960FAC669704C0B695A7959795879523
:102670000A94D2F73C014D01622A732A842A952AD2
:1026800069A27AA28BA29CA26C96ECACFDAC0EADBA
:102690001FAD6C9767960FAC679704C0EE0CFF1CDC
:1026A000001F111F0A94D2F7ED8EFE8E0F8F18A314
:1026B00049A55AA56BA57CA53B0188249924607087
:1026C00070702D964CAF5DAF6EAF7FAF2D97C6018A
:1026D000B501A40193013AD47B018C01C601B50177
:1026E000A401930133D4C901DA011C012D01C201F7
:1026F000B1012D962CAD3DAD4EAD5FAD2D9707D4FC
:102700009B01AC018701FF24EE24A9A0BAA0CBA0B5
:10271000DCA0C601AA27BB2757016801A82AB92A4D
:10272000CA2ADB2AA216B306C406D50600F5089409
:102730002108310841085108E9A4FAA40BA51CA5F9
:10274000AE0CBF1CC01ED11EAE14BF04C006D10605
:1027500070F0A216B306C406D50648F40894210802
:10276000310841085108AE0CBF1CC01ED11EA21A70
:10277000B30AC40AD50AC601B501A4019301E6D380
:102780007B018C01C601B501A4019301DFD3C9010E
:10279000DA013C014D01C401B3012D962CAD3DADD4
:1027A0004EAD5FAD2D97B3D39B01AC018701FF24E4
:1027B000EE2489A19AA1ABA1BCA1A070B070570171
:1027C0006801A82AB92ACA2ADB2AA216B306C406B7
:1027D000D50600F50894610871088108910869A57B
:1027E0007AA58BA59CA5A60EB71EC81ED91EA61637
:1027F000B706C806D90670F0A216B306C406D506F9
:1028000048F408946108710881089108A60EB71E63
:10281000C81ED91ED601C501821B930BA40BB50B94
:10282000898F9A8FAB8FBC8FD1019927882784011C
:102830007301E82AF92A0A2B1B2B4FEFA42E4FEF26
:10284000B42EC12CD12CAE20BF20C022D1227801C1
:10285000002711276DA07EA08FA098A44FEF5FEFF7
:1028600060E070E064227522862297228DA19EA1ED
:10287000AFA1B8A5BD018827992765966CAF7DAF3C
:102880008EAF9FAF6597C601B501A40193013FD3F9
:1028900061966CAF7DAF8EAF9FAF6197C601B501FA
:1028A00065962CAD3DAD4EAD5FAD659730D31B0148
:1028B0002C01C801B701A401930129D35B016C016C
:1028C000C801B70165962CAD3DAD4EAD5FAD6597C6
:1028D0001ED37B018C01A6019501220D331D441DE1
:1028E000551D61966CAC7DAC8EAC9FAC6197C401FC
:1028F000AA27BB27280F391F4A1F5B1F2A153B0534
:102900004C055D0548F4812C912CE1E0AE2EB12CF4
:10291000E80CF91C0A1D1B1DCA01AA27BB27570179
:102920006801A80EB91ECA1EDB1EA9013327222783
:1029300061968CAD9DADAEADBFAD6197A070B0702E
:10294000280F391F4A1F5B1FE98CFA8C0B8D1C8DD9
:10295000EA14FB040C051D0570F0AE14BF04C0069C
:10296000D10669F56D8D7E8D8F8D98A162177307E5
:102970008407950720F5DA01C9016DA07EA08FA01C
:1029800098A486199709A809B909E9A4FAA40BA57E
:102990001CA5AE18BF08C00AD10AEE24FF24870187
:1029A000281739074A075B0728F421E0E22EF12CAB
:1029B000012D112DAE18BF08C00AD10A02C0DA01DC
:1029C000C9016D8C7E8C8F8C98A0681A790A8A0A4E
:1029D0009B0A498D5A8D6B8D7C8D4A195B096C0958
:1029E0007D095A016B012224332421016D8D7E8DD6
:1029F0008F8D98A1661577058805990528F481E0E3
:102A0000282E312C412C512C86017501E218F30837
:102A100004091509A801970166960FAC669704C0D2
:102A2000220F331F441F551F0A94D2F7D401C3014C
:102A300067960FAC679704C0B695A795979587954D
:102A40000A94D2F7282B392B4A2B5B2B298B3A8BF4
:102A50004B8B5C8B67960FAC679704C016950795F8
:102A6000F794E7940A94D2F7ED8AFE8A0F8B188FB9
:102A70003A894B895C896E2D7E898F89988DC55ADC
:102A8000DF4FE2E129C20CD06EC166D140F05DD1CA
:102A900030F021F45F3F19F03FC1511198C142C19C
:102AA00073D198F39923C9F35523B1F3951B550BB3
:102AB000BB27AA2762177307840738F09F5F5F4F11
:102AC000220F331F441FAA1FA9F333D00E2E3AF052
:102AD000E0E830D091505040E695001CCAF729D06C
:102AE000FE2F27D0660F771F881FBB1F26173707BB
:102AF0004807AB07B0E809F0BB0B802DBF01FF27EB
:102B000093585F4F2AF09E3F510568F005C15FC1A1
:102B10005F3FECF3983EDCF3869577956795B79524
:102B2000F7959F5FC9F7880F911D9695879597F93F
:102B30000895E1E0660F771F881FBB1F62177307B8
:102B40008407BA0720F0621B730B840BBA0BEE1FCD
:102B500088F7E0950895BEE304D008F490E808955E
:102B6000BFE322273327A90117D158F19F5740F11E
:102B7000B91738F1BFE3B91B9927B8503AF4660F7B
:102B8000771F881F991FB395D2F316C0B8504AF02B
:102B9000232F342F452F562F672F782F8827B85093
:102BA000BAF7B85F49F08695779567955795479539
:102BB00037952795BA95B9F70EF4B7D0889408954C
:102BC000889460E070E0CB010895E6D088F09F57CC
:102BD00090F0B92F9927B751A0F0D1F0660F771F69
:102BE000881F991F1AF0BA95C9F712C0B13081F049
:102BF000EDD0B1E00895EAC0672F782F8827B85F3D
:102C000039F0B93FCCF3869577956795B395D9F7A9
:102C10003EF490958095709561957F4F8F4F9F4FB3
:102C20000895E89409C097FB3EF4909580957095BF
:102C300061957F4F8F4F9F4F9923A9F0F92F96E908
:102C4000BB279395F695879577956795B795F1117D
:102C5000F8CFFAF4BB0F11F460FF1BC06F5F7F4F1A
:102C60008F4F9F4F16C0882311F096E911C077232C
:102C700021F09EE8872F762F05C0662371F096E835
:102C8000862F70E060E02AF09A95660F771F881F04
:102C9000DAF7880F9695879597F90895E894F92FB4
:102CA00096EBFF2381F0121613061406440B93953E
:102CB000F69587957795679557954040FF23B9F727
:102CC0001BC099270895882351F49850D2F7872B79
:102CD000762F652F542F432F322F20E0B1F3121699
:102CE00013061406440B88233AF09A95440F551F97
:102CF000661F771F881FCAF755234AF4440F551FD4
:102D000011F460FF04C06F5F7F4F8F4F9F4F880F9C
:102D10009695879597F9089597F99F6780E870E0F1
:102D200060E008959FEF80EC0895909580957095F0
:102D3000609550954095309521953F4F4F4F5F4F8F
:102D40006F4F7F4F8F4F9F4F089500240A941616A0
:102D5000170618060906089500240A941216130689
:102D6000140605060895092E0394000C11F4882317
:102D700052F0BB0F40F4BF2B11F460FF04C06F5F33
:102D80007F4F8F4F9F4F089557FD9058440F551F09
:102D900059F05F3F71F04795880F97FB991F61F0DD
:102DA0009F3F79F087950895121613061406551F54
:102DB000F2CF4695F1DF08C0161617061806991FC0
:102DC000F1CF86957105610508940895E894BB27B5
:102DD00066277727CB0197F908950BD0C4CFB5DFCD
:102DE00028F0BADF18F0952309F096CF9BCF112475
:102DF000EECFCADFA0F3959FD1F3950F50E0551F9A
:102E0000629FF001729FBB27F00DB11D639FAA273F
:102E1000F00DB11DAA1F649F6627B00DA11D661F8E
:102E2000829F2227B00DA11D621F739FB00DA11DAF
:102E3000621F839FA00D611D221F749F3327A00D69
:102E4000611D231F849F600D211D822F762F6A2F05
:102E500011249F5750408AF0E1F088234AF0EE0F8A
:102E6000FF1FBB1F661F771F881F91505040A9F797
:102E70009E3F510570F050CFAACF5F3FECF3983ED4
:102E8000DCF3869577956795B795F795E7959F5FFE
:102E9000C1F7FE2B880F911D9695879597F9089598
:102EA0002F923F924F925F926F927F928F929F925A
:102EB000AF92BF92CF92DF92EF92FF920F931F9348
:102EC000CF93DF93CDB7DEB7CA1BDB0B0FB6F894F9
:102ED000DEBF0FBECDBF09942A88398848885F8439
:102EE0006E847D848C849B84AA84B984C884DF80AA
:102EF000EE80FD800C811B81AA81B981CE0FD11D8E
:102F00000FB6F894DEBF0FBECDBFED010895629FEE
:102F1000D001739FF001829FE00DF11D649FE00DD1
:102F2000F11D929FF00D839FF00D749FF00D659F32
:102F3000F00D9927729FB00DE11DF91F639FB00D31
:102F4000E11DF91FBD01CF0111240895A1E21A2E40
:102F5000AA1BBB1BFD010DC0AA1FBB1FEE1FFF1F3D
:102F6000A217B307E407F50720F0A21BB30BE40B8D
:102F7000F50B661F771F881F991F1A9469F76095D4
:102F80007095809590959B01AC01BD01CF0108958E
:042F9000F894FFCFE3
:102F9400240025000023002400250003230024002E
:102FA40025000023002A002B000529002700280003
:102FB4000726000A0D0053544152540A0D0050498B
:102FC4004E4745440A0D0028522965666572656EB0
:102FD400636520706F736974696F6E207365742CF8
:102FE40020285A2965726F206F757420656E636F8F
:102FF4006465722C202856296965772076616C7582
:1030040065732C20285329656E642073617665648A
:1030140020646174610A0D000001020203030303CA
:103024000404040404040404050505050505050554
:103034000505050505050505060606060606060634
:10304400060606060606060606060606060606061C
:103054000606060606060606070707070707070704
:1030640007070707070707070707070707070707EC
:1030740007070707070707070707070707070707DC
:1030840007070707070707070707070707070707CC
:1030940007070707070707070808080808080808B4
:1030A400080808080808080808080808080808089C
:1030B400080808080808080808080808080808088C
:1030C400080808080808080808080808080808087C
:1030D400080808080808080808080808080808086C
:1030E400080808080808080808080808080808085C
:1030F400080808080808080808080808080808084C
:10310400080808080808080808080808080808083B
:08311400080808080808080873
:00000001FF
